{
  "_format": "hh-sol-artifact-1",
  "contractName": "Verification",
  "sourceName": "contracts/Verification.sol",
  "abi": [
    {
      "inputs": [],
      "stateMutability": "nonpayable",
      "type": "constructor"
    },
    {
      "inputs": [
        {
          "internalType": "string",
          "name": "_uri",
          "type": "string"
        }
      ],
      "name": "addFile",
      "outputs": [],
      "stateMutability": "nonpayable",
      "type": "function"
    },
    {
      "inputs": [
        {
          "internalType": "uint256",
          "name": "",
          "type": "uint256"
        }
      ],
      "name": "idToFiles",
      "outputs": [
        {
          "internalType": "uint256",
          "name": "ID",
          "type": "uint256"
        },
        {
          "internalType": "address",
          "name": "sender",
          "type": "address"
        },
        {
          "internalType": "bool",
          "name": "isVerified",
          "type": "bool"
        },
        {
          "internalType": "string",
          "name": "uri",
          "type": "string"
        }
      ],
      "stateMutability": "view",
      "type": "function"
    },
    {
      "inputs": [
        {
          "internalType": "uint256",
          "name": "_id",
          "type": "uint256"
        }
      ],
      "name": "verifyFile",
      "outputs": [],
      "stateMutability": "nonpayable",
      "type": "function"
    },
    {
      "inputs": [],
      "name": "viewDocuments",
      "outputs": [
        {
          "components": [
            {
              "internalType": "uint256",
              "name": "ID",
              "type": "uint256"
            },
            {
              "internalType": "address",
              "name": "sender",
              "type": "address"
            },
            {
              "internalType": "bool",
              "name": "isVerified",
              "type": "bool"
            },
            {
              "internalType": "string",
              "name": "uri",
              "type": "string"
            }
          ],
          "internalType": "struct Verification.File[]",
          "name": "",
          "type": "tuple[]"
        }
      ],
      "stateMutability": "view",
      "type": "function"
    }
  ],
  "bytecode": "0x6080604052600060025534801561001557600080fd5b50336000806101000a81548173ffffffffffffffffffffffffffffffffffffffff021916908373ffffffffffffffffffffffffffffffffffffffff160217905550610e62806100656000396000f3fe608060405234801561001057600080fd5b506004361061004c5760003560e01c8063d686274f14610051578063e89c22d91461006d578063eb9b9b64146100a0578063f902f3ac146100bc575b600080fd5b61006b60048036038101906100669190610661565b6100da565b005b61008760048036038101906100829190610661565b610197565b6040516100979493929190610789565b60405180910390f35b6100ba60048036038101906100b5919061083a565b61027c565b005b6100c46103d2565b6040516100d19190610a23565b60405180910390f35b600015156001600083815260200190815260200160002060010160149054906101000a900460ff1615151461010e57600080fd5b3373ffffffffffffffffffffffffffffffffffffffff1660008054906101000a900473ffffffffffffffffffffffffffffffffffffffff1673ffffffffffffffffffffffffffffffffffffffff161461016657600080fd5b600180600083815260200190815260200160002060010160146101000a81548160ff02191690831515021790555050565b60016020528060005260406000206000915090508060000154908060010160009054906101000a900473ffffffffffffffffffffffffffffffffffffffff16908060010160149054906101000a900460ff16908060020180546101f990610a74565b80601f016020809104026020016040519081016040528092919081815260200182805461022590610a74565b80156102725780601f1061024757610100808354040283529160200191610272565b820191906000526020600020905b81548152906001019060200180831161025557829003601f168201915b5050505050905084565b6102846105e1565b6002600081548092919061029790610ad4565b919050555060025481600001818152505033816020019073ffffffffffffffffffffffffffffffffffffffff16908173ffffffffffffffffffffffffffffffffffffffff168152505082828080601f016020809104026020016040519081016040528093929190818152602001838380828437600081840152601f19601f820116905080830192505050505050508160600181905250806001600060025481526020019081526020016000206000820151816000015560208201518160010160006101000a81548173ffffffffffffffffffffffffffffffffffffffff021916908373ffffffffffffffffffffffffffffffffffffffff16021790555060408201518160010160146101000a81548160ff02191690831515021790555060608201518160020190816103c99190610cf7565b50905050505050565b6060600060025490506000808267ffffffffffffffff8111156103f8576103f7610b1c565b5b60405190808252806020026020018201604052801561043157816020015b61041e6105e1565b8152602001906001900390816104165790505b50905060005b838110156105d7576000600160006001846104529190610dc9565b8152602001908152602001600020600001549050600060016000838152602001908152602001600020905080604051806080016040529081600082015481526020016001820160009054906101000a900473ffffffffffffffffffffffffffffffffffffffff1673ffffffffffffffffffffffffffffffffffffffff1673ffffffffffffffffffffffffffffffffffffffff1681526020016001820160149054906101000a900460ff1615151515815260200160028201805461051490610a74565b80601f016020809104026020016040519081016040528092919081815260200182805461054090610a74565b801561058d5780601f106105625761010080835404028352916020019161058d565b820191906000526020600020905b81548152906001019060200180831161057057829003601f168201915b5050505050815250508486815181106105a9576105a8610dfd565b5b602002602001018190525084806105bf90610ad4565b955050505080806105cf90610ad4565b915050610437565b5080935050505090565b604051806080016040528060008152602001600073ffffffffffffffffffffffffffffffffffffffff168152602001600015158152602001606081525090565b600080fd5b600080fd5b6000819050919050565b61063e8161062b565b811461064957600080fd5b50565b60008135905061065b81610635565b92915050565b60006020828403121561067757610676610621565b5b60006106858482850161064c565b91505092915050565b6106978161062b565b82525050565b600073ffffffffffffffffffffffffffffffffffffffff82169050919050565b60006106c88261069d565b9050919050565b6106d8816106bd565b82525050565b60008115159050919050565b6106f3816106de565b82525050565b600081519050919050565b600082825260208201905092915050565b60005b83811015610733578082015181840152602081019050610718565b60008484015250505050565b6000601f19601f8301169050919050565b600061075b826106f9565b6107658185610704565b9350610775818560208601610715565b61077e8161073f565b840191505092915050565b600060808201905061079e600083018761068e565b6107ab60208301866106cf565b6107b860408301856106ea565b81810360608301526107ca8184610750565b905095945050505050565b600080fd5b600080fd5b600080fd5b60008083601f8401126107fa576107f96107d5565b5b8235905067ffffffffffffffff811115610817576108166107da565b5b602083019150836001820283011115610833576108326107df565b5b9250929050565b6000806020838503121561085157610850610621565b5b600083013567ffffffffffffffff81111561086f5761086e610626565b5b61087b858286016107e4565b92509250509250929050565b600081519050919050565b600082825260208201905092915050565b6000819050602082019050919050565b6108bc8161062b565b82525050565b6108cb816106bd565b82525050565b6108da816106de565b82525050565b600082825260208201905092915050565b60006108fc826106f9565b61090681856108e0565b9350610916818560208601610715565b61091f8161073f565b840191505092915050565b600060808301600083015161094260008601826108b3565b50602083015161095560208601826108c2565b50604083015161096860408601826108d1565b506060830151848203606086015261098082826108f1565b9150508091505092915050565b6000610999838361092a565b905092915050565b6000602082019050919050565b60006109b982610887565b6109c38185610892565b9350836020820285016109d5856108a3565b8060005b85811015610a1157848403895281516109f2858261098d565b94506109fd836109a1565b925060208a019950506001810190506109d9565b50829750879550505050505092915050565b60006020820190508181036000830152610a3d81846109ae565b905092915050565b7f4e487b7100000000000000000000000000000000000000000000000000000000600052602260045260246000fd5b60006002820490506001821680610a8c57607f821691505b602082108103610a9f57610a9e610a45565b5b50919050565b7f4e487b7100000000000000000000000000000000000000000000000000000000600052601160045260246000fd5b6000610adf8261062b565b91507fffffffffffffffffffffffffffffffffffffffffffffffffffffffffffffffff8203610b1157610b10610aa5565b5b600182019050919050565b7f4e487b7100000000000000000000000000000000000000000000000000000000600052604160045260246000fd5b60008190508160005260206000209050919050565b60006020601f8301049050919050565b600082821b905092915050565b600060088302610bad7fffffffffffffffffffffffffffffffffffffffffffffffffffffffffffffffff82610b70565b610bb78683610b70565b95508019841693508086168417925050509392505050565b6000819050919050565b6000610bf4610bef610bea8461062b565b610bcf565b61062b565b9050919050565b6000819050919050565b610c0e83610bd9565b610c22610c1a82610bfb565b848454610b7d565b825550505050565b600090565b610c37610c2a565b610c42818484610c05565b505050565b5b81811015610c6657610c5b600082610c2f565b600181019050610c48565b5050565b601f821115610cab57610c7c81610b4b565b610c8584610b60565b81016020851015610c94578190505b610ca8610ca085610b60565b830182610c47565b50505b505050565b600082821c905092915050565b6000610cce60001984600802610cb0565b1980831691505092915050565b6000610ce78383610cbd565b9150826002028217905092915050565b610d00826106f9565b67ffffffffffffffff811115610d1957610d18610b1c565b5b610d238254610a74565b610d2e828285610c6a565b600060209050601f831160018114610d615760008415610d4f578287015190505b610d598582610cdb565b865550610dc1565b601f198416610d6f86610b4b565b60005b82811015610d9757848901518255600182019150602085019450602081019050610d72565b86831015610db45784890151610db0601f891682610cbd565b8355505b6001600288020188555050505b505050505050565b6000610dd48261062b565b9150610ddf8361062b565b9250828201905080821115610df757610df6610aa5565b5b92915050565b7f4e487b7100000000000000000000000000000000000000000000000000000000600052603260045260246000fdfea26469706673582212203d993bc388fda9da5903900cf5946b7912ed710f98f5038c6d4f677d227af0b964736f6c63430008120033",
  "linkReferences": {},
  "deployedLinkReferences": {}
}